{
  "contractName": "CommentContract",
  "abi": [
    {
      "anonymous": false,
      "inputs": [
        {
          "indexed": false,
          "internalType": "address",
          "name": "recipient",
          "type": "address"
        },
        {
          "indexed": false,
          "internalType": "uint256",
          "name": "commentId",
          "type": "uint256"
        }
      ],
      "name": "AddComment",
      "type": "event"
    },
    {
      "anonymous": false,
      "inputs": [
        {
          "indexed": false,
          "internalType": "uint256",
          "name": "commentId",
          "type": "uint256"
        },
        {
          "indexed": false,
          "internalType": "bool",
          "name": "isDeleted",
          "type": "bool"
        }
      ],
      "name": "DeleteComment",
      "type": "event"
    },
    {
      "constant": false,
      "inputs": [
        {
          "internalType": "string",
          "name": "commentText",
          "type": "string"
        },
        {
          "internalType": "bool",
          "name": "isDeleted",
          "type": "bool"
        }
      ],
      "name": "addComment",
      "outputs": [],
      "payable": false,
      "stateMutability": "nonpayable",
      "type": "function"
    },
    {
      "constant": true,
      "inputs": [],
      "name": "getAllComments",
      "outputs": [
        {
          "components": [
            {
              "internalType": "uint256",
              "name": "id",
              "type": "uint256"
            },
            {
              "internalType": "address",
              "name": "username",
              "type": "address"
            },
            {
              "internalType": "string",
              "name": "commentText",
              "type": "string"
            },
            {
              "internalType": "bool",
              "name": "isDeleted",
              "type": "bool"
            }
          ],
          "internalType": "struct CommentContract.Comment[]",
          "name": "",
          "type": "tuple[]"
        }
      ],
      "payable": false,
      "stateMutability": "view",
      "type": "function"
    },
    {
      "constant": true,
      "inputs": [],
      "name": "getMyComments",
      "outputs": [
        {
          "components": [
            {
              "internalType": "uint256",
              "name": "id",
              "type": "uint256"
            },
            {
              "internalType": "address",
              "name": "username",
              "type": "address"
            },
            {
              "internalType": "string",
              "name": "commentText",
              "type": "string"
            },
            {
              "internalType": "bool",
              "name": "isDeleted",
              "type": "bool"
            }
          ],
          "internalType": "struct CommentContract.Comment[]",
          "name": "",
          "type": "tuple[]"
        }
      ],
      "payable": false,
      "stateMutability": "view",
      "type": "function"
    },
    {
      "constant": false,
      "inputs": [
        {
          "internalType": "uint256",
          "name": "commentId",
          "type": "uint256"
        },
        {
          "internalType": "bool",
          "name": "isDeleted",
          "type": "bool"
        }
      ],
      "name": "deleteComment",
      "outputs": [],
      "payable": false,
      "stateMutability": "nonpayable",
      "type": "function"
    }
  ],
  "bytecode": "0x608060405234801561001057600080fd5b50610e71806100206000396000f3fe608060405234801561001057600080fd5b506004361061004c5760003560e01c8063104409041461005157806373420a1a1461006f578063c6e039e01461008b578063e85f79d9146100a9575b600080fd5b6100596100c5565b6040516100669190610c9e565b60405180910390f35b61008960048036036100849190810190610a62565b61035a565b005b61009361052f565b6040516100a09190610c9e565b60405180910390f35b6100c360048036036100be9190810190610aba565b61082e565b005b60608060008054905060405190808252806020026020018201604052801561010757816020015b6100f4610909565b8152602001906001900390816100ec5790505b509050600080905060008090505b6000805490508110156102ca57600015156000828154811061013357fe5b906000526020600020906004020160030160009054906101000a900460ff16151514156102bd576000818154811061016757fe5b9060005260206000209060040201604051806080016040529081600082015481526020016001820160009054906101000a900473ffffffffffffffffffffffffffffffffffffffff1673ffffffffffffffffffffffffffffffffffffffff1673ffffffffffffffffffffffffffffffffffffffff168152602001600282018054600181600116156101000203166002900480601f0160208091040260200160405190810160405280929190818152602001828054600181600116156101000203166002900480156102795780601f1061024e57610100808354040283529160200191610279565b820191906000526020600020905b81548152906001019060200180831161025c57829003601f168201915b505050505081526020016003820160009054906101000a900460ff1615151515815250508383815181106102a957fe5b602002602001018190525081806001019250505b8080600101915050610115565b5060608160405190808252806020026020018201604052801561030757816020015b6102f4610909565b8152602001906001900390816102ec5790505b50905060008090505b828110156103505783818151811061032457fe5b602002602001015182828151811061033857fe5b60200260200101819052508080600101915050610310565b5080935050505090565b600080805490509050600060405180608001604052808381526020013373ffffffffffffffffffffffffffffffffffffffff16815260200186868080601f016020809104026020016040519081016040528093929190818152602001838380828437600081840152601f19601f820116905080830192505050505050508152602001841515815250908060018154018082558091505090600182039060005260206000209060040201600090919290919091506000820151816000015560208201518160010160006101000a81548173ffffffffffffffffffffffffffffffffffffffff021916908373ffffffffffffffffffffffffffffffffffffffff160217905550604082015181600201908051906020019061047a929190610949565b5060608201518160030160006101000a81548160ff021916908315150217905550505050336001600083815260200190815260200160002060006101000a81548173ffffffffffffffffffffffffffffffffffffffff021916908373ffffffffffffffffffffffffffffffffffffffff1602179055507fbdc0c05b2b98f668ad81c982cec8a11b56191046f1f20b2e396f695376dde5663382604051610521929190610c75565b60405180910390a150505050565b60608060008054905060405190808252806020026020018201604052801561057157816020015b61055e610909565b8152602001906001900390816105565790505b509050600080905060008090505b60008054905081101561079e573373ffffffffffffffffffffffffffffffffffffffff166001600083815260200190815260200160002060009054906101000a900473ffffffffffffffffffffffffffffffffffffffff1673ffffffffffffffffffffffffffffffffffffffff161480156106295750600015156000828154811061060657fe5b906000526020600020906004020160030160009054906101000a900460ff161515145b15610791576000818154811061063b57fe5b9060005260206000209060040201604051806080016040529081600082015481526020016001820160009054906101000a900473ffffffffffffffffffffffffffffffffffffffff1673ffffffffffffffffffffffffffffffffffffffff1673ffffffffffffffffffffffffffffffffffffffff168152602001600282018054600181600116156101000203166002900480601f01602080910402602001604051908101604052809291908181526020018280546001816001161561010002031660029004801561074d5780601f106107225761010080835404028352916020019161074d565b820191906000526020600020905b81548152906001019060200180831161073057829003601f168201915b505050505081526020016003820160009054906101000a900460ff16151515158152505083838151811061077d57fe5b602002602001018190525081806001019250505b808060010191505061057f565b506060816040519080825280602002602001820160405280156107db57816020015b6107c8610909565b8152602001906001900390816107c05790505b50905060008090505b82811015610824578381815181106107f857fe5b602002602001015182828151811061080c57fe5b602002602001018190525080806001019150506107e4565b5080935050505090565b3373ffffffffffffffffffffffffffffffffffffffff166001600084815260200190815260200160002060009054906101000a900473ffffffffffffffffffffffffffffffffffffffff1673ffffffffffffffffffffffffffffffffffffffff1614156109055780600083815481106108a357fe5b906000526020600020906004020160030160006101000a81548160ff0219169083151502179055507f35201890eadb4546095374517e637759fb72afe94eb057767feea53810d9d2a582826040516108fc929190610cc0565b60405180910390a15b5050565b604051806080016040528060008152602001600073ffffffffffffffffffffffffffffffffffffffff168152602001606081526020016000151581525090565b828054600181600116156101000203166002900490600052602060002090601f016020900481019282601f1061098a57805160ff19168380011785556109b8565b828001600101855582156109b8579182015b828111156109b757825182559160200191906001019061099c565b5b5090506109c591906109c9565b5090565b6109eb91905b808211156109e75760008160009055506001016109cf565b5090565b90565b6000813590506109fd81610e00565b92915050565b60008083601f840112610a1557600080fd5b8235905067ffffffffffffffff811115610a2e57600080fd5b602083019150836001820283011115610a4657600080fd5b9250929050565b600081359050610a5c81610e17565b92915050565b600080600060408486031215610a7757600080fd5b600084013567ffffffffffffffff811115610a9157600080fd5b610a9d86828701610a03565b93509350506020610ab0868287016109ee565b9150509250925092565b60008060408385031215610acd57600080fd5b6000610adb85828601610a4d565b9250506020610aec858286016109ee565b9150509250929050565b6000610b028383610bf4565b905092915050565b610b1381610d86565b82525050565b610b2281610d3e565b82525050565b6000610b3382610cf9565b610b3d8185610d1c565b935083602082028501610b4f85610ce9565b8060005b85811015610b8b5784840389528151610b6c8582610af6565b9450610b7783610d0f565b925060208a01995050600181019050610b53565b50829750879550505050505092915050565b610ba681610d50565b82525050565b610bb581610d50565b82525050565b6000610bc682610d04565b610bd08185610d2d565b9350610be0818560208601610dbc565b610be981610def565b840191505092915050565b6000608083016000830151610c0c6000860182610c57565b506020830151610c1f6020860182610b19565b5060408301518482036040860152610c378282610bbb565b9150506060830151610c4c6060860182610b9d565b508091505092915050565b610c6081610d7c565b82525050565b610c6f81610d7c565b82525050565b6000604082019050610c8a6000830185610b0a565b610c976020830184610c66565b9392505050565b60006020820190508181036000830152610cb88184610b28565b905092915050565b6000604082019050610cd56000830185610c66565b610ce26020830184610bac565b9392505050565b6000819050602082019050919050565b600081519050919050565b600081519050919050565b6000602082019050919050565b600082825260208201905092915050565b600082825260208201905092915050565b6000610d4982610d5c565b9050919050565b60008115159050919050565b600073ffffffffffffffffffffffffffffffffffffffff82169050919050565b6000819050919050565b6000610d9182610d98565b9050919050565b6000610da382610daa565b9050919050565b6000610db582610d5c565b9050919050565b60005b83811015610dda578082015181840152602081019050610dbf565b83811115610de9576000848401525b50505050565b6000601f19601f8301169050919050565b610e0981610d50565b8114610e1457600080fd5b50565b610e2081610d7c565b8114610e2b57600080fd5b5056fea365627a7a72315820936a84117491770a686a76b2b334e459d667243e4c29aba2e1c1d165efb5cc836c6578706572696d656e74616cf564736f6c63430005100040",
  "source": "pragma solidity ^0.5.0;\r\npragma experimental ABIEncoderV2;\r\n\r\ncontract CommentContract {\r\n    \r\n  event AddComment(address recipient, uint commentId);\r\n  event DeleteComment(uint commentId, bool isDeleted);\r\n\r\n    struct Comment {\r\n            uint id;\r\n            address username;\r\n            string commentText;\r\n            bool isDeleted;\r\n        }\r\n\r\n    Comment[] private comments;\r\n\r\n    // Mapping of Comment id to the wallet address of the user\r\n    mapping(uint256 => address) commentToOwner;\r\n\r\n    \r\n// Method to be called by our frontend when trying to add a new Comment\r\n    function addComment(string calldata commentText, bool isDeleted) external {\r\n        uint commentId = comments.length;\r\n        comments.push(Comment(commentId, msg.sender, commentText, isDeleted));\r\n        commentToOwner[commentId] = msg.sender;\r\n        emit AddComment(msg.sender, commentId);\r\n    }\r\n\r\n     // Method to get all the Comments\r\n    function getAllComments() external view returns (Comment[] memory) {\r\n        Comment[] memory temporary = new Comment[](comments.length);\r\n        uint counter = 0;\r\n        for(uint i=0; i<comments.length; i++) {\r\n            if(comments[i].isDeleted == false) {\r\n                temporary[counter] = comments[i];\r\n                counter++;\r\n            }\r\n        }\r\n\r\n        Comment[] memory result = new Comment[](counter);\r\n        for(uint i=0; i<counter; i++) {\r\n            result[i] = temporary[i];\r\n        }\r\n        return result;\r\n    }\r\n\r\n    // Method to get only your Comments\r\n    function getMyComments() external view returns (Comment[] memory) {\r\n        Comment[] memory temporary = new Comment[](comments.length);\r\n        uint counter = 0;\r\n        for(uint i=0; i<comments.length; i++) {\r\n            if(commentToOwner[i] == msg.sender && comments[i].isDeleted == false) {\r\n                temporary[counter] = comments[i];\r\n                counter++;\r\n            }\r\n        }\r\n\r\n        Comment[] memory result = new Comment[](counter);\r\n        for(uint i=0; i<counter; i++) {\r\n            result[i] = temporary[i];\r\n        }\r\n        return result;\r\n    }\r\n\r\n    // Method to Delete a Comment\r\n    function deleteComment(uint commentId, bool isDeleted) external {\r\n        if(commentToOwner[commentId] == msg.sender) {\r\n            comments[commentId].isDeleted = isDeleted;\r\n            emit DeleteComment(commentId, isDeleted);\r\n        }\r\n    }\r\n\r\n\r\n}",
  "sourcePath": "C:/Users/Brilliant/Documents/web3/decentragram/src/contracts/Comment.sol",
  "compiler": {
    "name": "solc",
    "version": "0.5.16+commit.9c3226ce.Emscripten.clang"
  },
  "schemaVersion": "3.2.3",
  "updatedAt": "2022-04-14T14:18:02.894Z",
  "devdoc": {
    "methods": {}
  },
  "userdoc": {
    "methods": {}
  }
}